{
  "transactions": [
    {
      "hash": "0x571724eee027be35c49126ec4a582126c2d5d0f5624f619ceae23404527f4f9b",
      "transactionType": "CALL",
      "contractName": null,
      "contractAddress": "0x1bc0c42215582d5a085795f4badbac3ff36d1bcb",
      "function": "approve(address,uint256)",
      "arguments": [
        "0x000000000022D473030F116dDEE9F6B43aC78BA3",
        "115792089237316195423570985008687907853269984665640564039457584007913129639935"
      ],
      "transaction": {
        "from": "0xa5c39b5b9d54ee7640b0776c85ccb47e83da1fee",
        "to": "0x1bc0c42215582d5a085795f4badbac3ff36d1bcb",
        "gas": "0xf958",
        "value": "0x0",
        "input": "0x095ea7b3000000000000000000000000000000000022d473030f116ddee9f6b43ac78ba3ffffffffffffffffffffffffffffffffffffffffffffffffffffffffffffffff",
        "nonce": "0x36",
        "chainId": "0x2105"
      },
      "additionalContracts": [],
      "isFixedGasLimit": false
    },
    {
      "hash": "0x693bfde3a645446edb697220bf2881ff4e14b1e6ee6404913fd14216d09bb217",
      "transactionType": "CALL",
      "contractName": null,
      "contractAddress": "0x000000000022d473030f116ddee9f6b43ac78ba3",
      "function": "approve(address,address,uint160,uint48)",
      "arguments": [
        "0x1bc0c42215582d5A085795f4baDbaC3ff36d1Bcb",
        "0x7C5f5A4bBd8fD63184577525326123B519429bDc",
        "1461501637330902918203684832716283019655932542975",
        "281474976710655"
      ],
      "transaction": {
        "from": "0xa5c39b5b9d54ee7640b0776c85ccb47e83da1fee",
        "to": "0x000000000022d473030f116ddee9f6b43ac78ba3",
        "gas": "0x1112d",
        "value": "0x0",
        "input": "0x87517c450000000000000000000000001bc0c42215582d5a085795f4badbac3ff36d1bcb0000000000000000000000007c5f5a4bbd8fd63184577525326123b519429bdc000000000000000000000000ffffffffffffffffffffffffffffffffffffffff0000000000000000000000000000000000000000000000000000ffffffffffff",
        "nonce": "0x37",
        "chainId": "0x2105"
      },
      "additionalContracts": [],
      "isFixedGasLimit": false
    },
    {
      "hash": "0x832273574a26829c1be2c641d319cc38c599f8d0a1aaafc765b34b2eefe3f7df",
      "transactionType": "CALL",
      "contractName": null,
      "contractAddress": "0x4200000000000000000000000000000000000006",
      "function": "approve(address,uint256)",
      "arguments": [
        "0x000000000022D473030F116dDEE9F6B43aC78BA3",
        "115792089237316195423570985008687907853269984665640564039457584007913129639935"
      ],
      "transaction": {
        "from": "0xa5c39b5b9d54ee7640b0776c85ccb47e83da1fee",
        "to": "0x4200000000000000000000000000000000000006",
        "gas": "0x8e58",
        "value": "0x0",
        "input": "0x095ea7b3000000000000000000000000000000000022d473030f116ddee9f6b43ac78ba3ffffffffffffffffffffffffffffffffffffffffffffffffffffffffffffffff",
        "nonce": "0x38",
        "chainId": "0x2105"
      },
      "additionalContracts": [],
      "isFixedGasLimit": false
    },
    {
      "hash": "0x5c0f2507eb01c49a0b076036a4ce175060f937dee5e151cc85d98aa64284bff7",
      "transactionType": "CALL",
      "contractName": null,
      "contractAddress": "0x000000000022d473030f116ddee9f6b43ac78ba3",
      "function": "approve(address,address,uint160,uint48)",
      "arguments": [
        "0x4200000000000000000000000000000000000006",
        "0x7C5f5A4bBd8fD63184577525326123B519429bDc",
        "1461501637330902918203684832716283019655932542975",
        "281474976710655"
      ],
      "transaction": {
        "from": "0xa5c39b5b9d54ee7640b0776c85ccb47e83da1fee",
        "to": "0x000000000022d473030f116ddee9f6b43ac78ba3",
        "gas": "0x9576",
        "value": "0x0",
        "input": "0x87517c4500000000000000000000000042000000000000000000000000000000000000060000000000000000000000007c5f5a4bbd8fd63184577525326123b519429bdc000000000000000000000000ffffffffffffffffffffffffffffffffffffffff0000000000000000000000000000000000000000000000000000ffffffffffff",
        "nonce": "0x39",
        "chainId": "0x2105"
      },
      "additionalContracts": [],
      "isFixedGasLimit": false
    },
    {
      "hash": "0xd83e3fb42453c6b7c31317978bfaba040636b0cdf5f0656d85c81914b8c6b0e7",
      "transactionType": "CALL",
      "contractName": null,
      "contractAddress": "0x7c5f5a4bbd8fd63184577525326123b519429bdc",
      "function": "multicall(bytes[])",
      "arguments": [
        "[0xf70204050000000000000000000000001bc0c42215582d5a085795f4badbac3ff36d1bcb00000000000000000000000042000000000000000000000000000000000000060000000000000000000000000000000000000000000000000000000000800000000000000000000000000000000000000000000000000000000000000000003c000000000000000000000000abf204889fe7fb23ec60d1eb3eb5335f531a00800000000000000000000000000000000000000000205827052547b02750694f0100000000000000000000000000000000000000000000000000000000000000e00000000000000000000000000000000000000000000000000000000000000000, 0xdd46508f000000000000000000000000000000000000000000000000000000000000004000000000000000000000000000000000000000000000000000000000697f7cab0000000000000000000000000000000000000000000000000000000000000400000000000000000000000000000000000000000000000000000000000000004000000000000000000000000000000000000000000000000000000000000000800000000000000000000000000000000000000000000000000000000000000004020d14140000000000000000000000000000000000000000000000000000000000000000000000000000000000000000000000000000000000000000000000040000000000000000000000000000000000000000000000000000000000000080000000000000000000000000000000000000000000000000000000000000024000000000000000000000000000000000000000000000000000000000000002a0000000000000000000000000000000000000000000000000000000000000030000000000000000000000000000000000000000000000000000000000000001a00000000000000000000000001bc0c42215582d5a085795f4badbac3ff36d1bcb00000000000000000000000042000000000000000000000000000000000000060000000000000000000000000000000000000000000000000000000000800000000000000000000000000000000000000000000000000000000000000000003c000000000000000000000000abf204889fe7fb23ec60d1eb3eb5335f531a0080fffffffffffffffffffffffffffffffffffffffffffffffffffffffffffeaebc0000000000000000000000000000000000000000000000000000000000000e100000000000000000000000000000000000000000000000000146f7f255e9cbb20000000000000000000000000000000000000000000000000928ca80cfc200010000000000000000000000000000000000000000000000000024f2beb1aa0001000000000000000000000000a5c39b5b9d54ee7640b0776c85ccb47e83da1fee0000000000000000000000000000000000000000000000000000000000000180000000000000000000000000000000000000000000000000000000000000000000000000000000000000000000000000000000000000000000000000000000400000000000000000000000001bc0c42215582d5a085795f4badbac3ff36d1bcb000000000000000000000000420000000000000000000000000000000000000600000000000000000000000000000000000000000000000000000000000000400000000000000000000000001bc0c42215582d5a085795f4badbac3ff36d1bcb000000000000000000000000a5c39b5b9d54ee7640b0776c85ccb47e83da1fee00000000000000000000000000000000000000000000000000000000000000400000000000000000000000004200000000000000000000000000000000000006000000000000000000000000a5c39b5b9d54ee7640b0776c85ccb47e83da1fee]"
      ],
      "transaction": {
        "from": "0xa5c39b5b9d54ee7640b0776c85ccb47e83da1fee",
        "to": "0x7c5f5a4bbd8fd63184577525326123b519429bdc",
        "gas": "0x92342",
        "value": "0x0",
        "input": "0xac9650d800000000000000000000000000000000000000000000000000000000000000200000000000000000000000000000000000000000000000000000000000000002000000000000000000000000000000000000000000000000000000000000004000000000000000000000000000000000000000000000000000000000000001800000000000000000000000000000000000000000000000000000000000000104f70204050000000000000000000000001bc0c42215582d5a085795f4badbac3ff36d1bcb00000000000000000000000042000000000000000000000000000000000000060000000000000000000000000000000000000000000000000000000000800000000000000000000000000000000000000000000000000000000000000000003c000000000000000000000000abf204889fe7fb23ec60d1eb3eb5335f531a00800000000000000000000000000000000000000000205827052547b02750694f0100000000000000000000000000000000000000000000000000000000000000e00000000000000000000000000000000000000000000000000000000000000000000000000000000000000000000000000000000000000000000000000000000000000000000000000000000000000000000000000000000000000464dd46508f000000000000000000000000000000000000000000000000000000000000004000000000000000000000000000000000000000000000000000000000697f7cab0000000000000000000000000000000000000000000000000000000000000400000000000000000000000000000000000000000000000000000000000000004000000000000000000000000000000000000000000000000000000000000000800000000000000000000000000000000000000000000000000000000000000004020d14140000000000000000000000000000000000000000000000000000000000000000000000000000000000000000000000000000000000000000000000040000000000000000000000000000000000000000000000000000000000000080000000000000000000000000000000000000000000000000000000000000024000000000000000000000000000000000000000000000000000000000000002a0000000000000000000000000000000000000000000000000000000000000030000000000000000000000000000000000000000000000000000000000000001a00000000000000000000000001bc0c42215582d5a085795f4badbac3ff36d1bcb00000000000000000000000042000000000000000000000000000000000000060000000000000000000000000000000000000000000000000000000000800000000000000000000000000000000000000000000000000000000000000000003c000000000000000000000000abf204889fe7fb23ec60d1eb3eb5335f531a0080fffffffffffffffffffffffffffffffffffffffffffffffffffffffffffeaebc0000000000000000000000000000000000000000000000000000000000000e100000000000000000000000000000000000000000000000000146f7f255e9cbb20000000000000000000000000000000000000000000000000928ca80cfc200010000000000000000000000000000000000000000000000000024f2beb1aa0001000000000000000000000000a5c39b5b9d54ee7640b0776c85ccb47e83da1fee0000000000000000000000000000000000000000000000000000000000000180000000000000000000000000000000000000000000000000000000000000000000000000000000000000000000000000000000000000000000000000000000400000000000000000000000001bc0c42215582d5a085795f4badbac3ff36d1bcb000000000000000000000000420000000000000000000000000000000000000600000000000000000000000000000000000000000000000000000000000000400000000000000000000000001bc0c42215582d5a085795f4badbac3ff36d1bcb000000000000000000000000a5c39b5b9d54ee7640b0776c85ccb47e83da1fee00000000000000000000000000000000000000000000000000000000000000400000000000000000000000004200000000000000000000000000000000000006000000000000000000000000a5c39b5b9d54ee7640b0776c85ccb47e83da1fee00000000000000000000000000000000000000000000000000000000",
        "nonce": "0x3a",
        "chainId": "0x2105"
      },
      "additionalContracts": [],
      "isFixedGasLimit": false
    }
  ],
  "receipts": [
    {
      "status": "0x1",
      "cumulativeGasUsed": "0x139dbb8",
      "logs": [
        {
          "address": "0x1bc0c42215582d5a085795f4badbac3ff36d1bcb",
          "topics": [
            "0x8c5be1e5ebec7d5bd14f71427d1e84f3dd0314c0f7b2291e5b200ac8c7c3b925",
            "0x000000000000000000000000a5c39b5b9d54ee7640b0776c85ccb47e83da1fee",
            "0x000000000000000000000000000000000022d473030f116ddee9f6b43ac78ba3"
          ],
          "data": "0xffffffffffffffffffffffffffffffffffffffffffffffffffffffffffffffff",
          "blockHash": "0xfeef76e1ea9fa90f77b18c2ced3fe07d4b1c63e51f1da1346524d660135a5147",
          "blockNumber": "0x27a88e0",
          "blockTimestamp": "0x697f6ea3",
          "transactionHash": "0x832273574a26829c1be2c641d319cc38c599f8d0a1aaafc765b34b2eefe3f7df",
          "transactionIndex": "0x48",
          "logIndex": "0x237",
          "removed": false
        }
      ],
      "logsBloom": "0x00000000000000000000000000800000000400000000000000000000000000000000000000000020000000000000000000000000800000200000000000200000000000000000000000004000000000000000000000000800000000000000000000000000000000000000000000000000000000000000000000000000000000000000800000000000000000000000000000000000000000000000000000000000020000000000000000000000000000000000000000000000000000000000000000000000000000000000400000000000000000000000000000000000000000000010000000000000000000000000000000000000000000000000000000000000",
      "type": "0x2",
      "transactionHash": "0x832273574a26829c1be2c641d319cc38c599f8d0a1aaafc765b34b2eefe3f7df",
      "transactionIndex": "0x48",
      "blockHash": "0xfeef76e1ea9fa90f77b18c2ced3fe07d4b1c63e51f1da1346524d660135a5147",
      "blockNumber": "0x27a88e0",
      "gasUsed": "0xb486",
      "effectiveGasPrice": "0x1b4bbc6",
      "blobGasUsed": "0x364c",
      "from": "0xa5c39b5b9d54ee7640b0776c85ccb47e83da1fee",
      "to": "0x1bc0c42215582d5a085795f4badbac3ff36d1bcb",
      "contractAddress": null,
      "daFootprintGasScalar": "0x8b",
      "l1BaseFeeScalar": "0x8dd",
      "l1BlobBaseFee": "0x27640f5",
      "l1BlobBaseFeeScalar": "0x101c12",
      "l1Fee": "0x1a8399b4c",
      "l1GasPrice": "0x2d41ffd3",
      "l1GasUsed": "0x640"
    },
    {
      "status": "0x1",
      "cumulativeGasUsed": "0x13a9682",
      "logs": [
        {
          "address": "0x000000000022d473030f116ddee9f6b43ac78ba3",
          "topics": [
            "0xda9fa7c1b00402c17d0161b249b1ab8bbec047c5a52207b9c112deffd817036b",
            "0x000000000000000000000000a5c39b5b9d54ee7640b0776c85ccb47e83da1fee",
            "0x0000000000000000000000001bc0c42215582d5a085795f4badbac3ff36d1bcb",
            "0x0000000000000000000000007c5f5a4bbd8fd63184577525326123b519429bdc"
          ],
          "data": "0x000000000000000000000000ffffffffffffffffffffffffffffffffffffffff0000000000000000000000000000000000000000000000000000ffffffffffff",
          "blockHash": "0xfeef76e1ea9fa90f77b18c2ced3fe07d4b1c63e51f1da1346524d660135a5147",
          "blockNumber": "0x27a88e0",
          "blockTimestamp": "0x697f6ea3",
          "transactionHash": "0xd83e3fb42453c6b7c31317978bfaba040636b0cdf5f0656d85c81914b8c6b0e7",
          "transactionIndex": "0x49",
          "logIndex": "0x238",
          "removed": false
        }
      ],
      "logsBloom": "0x00010000000000000000000000800000000400000000000000000000000000000000000000000000000000000000000000000000000000000000000000082000000000000000000000000000000000000000000000000000000000000000000000000000000000000000020000000000000000000000000000000000000000000020000000000000000000000000000000000000000000000000000000000000000000000000000000000000000000000000000000000000000000080000000200000000000000000000400000000000000000000010000240000000000000000000000000000000000000000000000000000000002000000000000000000400",
      "type": "0x2",
      "transactionHash": "0xd83e3fb42453c6b7c31317978bfaba040636b0cdf5f0656d85c81914b8c6b0e7",
      "transactionIndex": "0x49",
      "blockHash": "0xfeef76e1ea9fa90f77b18c2ced3fe07d4b1c63e51f1da1346524d660135a5147",
      "blockNumber": "0x27a88e0",
      "gasUsed": "0xbaca",
      "effectiveGasPrice": "0x1b4bbc6",
      "blobGasUsed": "0x3cd0",
      "from": "0xa5c39b5b9d54ee7640b0776c85ccb47e83da1fee",
      "to": "0x000000000022d473030f116ddee9f6b43ac78ba3",
      "contractAddress": null,
      "daFootprintGasScalar": "0x8b",
      "l1BaseFeeScalar": "0x8dd",
      "l1BlobBaseFee": "0x27640f5",
      "l1BlobBaseFeeScalar": "0x101c12",
      "l1Fee": "0x1a8399b4c",
      "l1GasPrice": "0x2d41ffd3",
      "l1GasUsed": "0x702"
    },
    {
      "status": "0x1",
      "cumulativeGasUsed": "0x13afd91",
      "logs": [
        {
          "address": "0x4200000000000000000000000000000000000006",
          "topics": [
            "0x8c5be1e5ebec7d5bd14f71427d1e84f3dd0314c0f7b2291e5b200ac8c7c3b925",
            "0x000000000000000000000000a5c39b5b9d54ee7640b0776c85ccb47e83da1fee",
            "0x000000000000000000000000000000000022d473030f116ddee9f6b43ac78ba3"
          ],
          "data": "0xffffffffffffffffffffffffffffffffffffffffffffffffffffffffffffffff",
          "blockHash": "0x5c4b368608e30ac899136960ec327822a5bcb7962c7d8311c6f824ad092078fc",
          "blockNumber": "0x27a88e0",
          "blockTimestamp": "0x697f6ea3",
          "transactionHash": "0x571724eee027be35c49126ec4a582126c2d5d0f5624f619ceae23404527f4f9b",
          "transactionIndex": "0x4a",
          "logIndex": "0x239",
          "removed": false
        }
      ],
      "logsBloom": "0x00000000000000000000000000800000000400000000000000040000000000000000000000000000000000100000000000000000800000000000000000200000000000000000000000004000000000000000000000000800000000000000000000000000000000000000000000000000000000000000000000000000000000000000000000000000000000000000000000000000002000000000000000000000020000000000000000000000000000000000000000000000000000000000000000000000000000000000400000000000000000000000000000000000000000000010000000000000000000000000000000000000000000000000000000000000",
      "type": "0x2",
      "transactionHash": "0x571724eee027be35c49126ec4a582126c2d5d0f5624f619ceae23404527f4f9b",
      "transactionIndex": "0x4a",
      "blockHash": "0x5c4b368608e30ac899136960ec327822a5bcb7962c7d8311c6f824ad092078fc",
      "blockNumber": "0x27a88e0",
      "gasUsed": "0x670f",
      "effectiveGasPrice": "0x1b4bbc6",
      "blobGasUsed": "0x364c",
      "from": "0xa5c39b5b9d54ee7640b0776c85ccb47e83da1fee",
      "to": "0x4200000000000000000000000000000000000006",
      "contractAddress": null,
      "daFootprintGasScalar": "0x8b",
      "l1BaseFeeScalar": "0x8dd",
      "l1BlobBaseFee": "0x27640f5",
      "l1BlobBaseFeeScalar": "0x101c12",
      "l1Fee": "0x1a8399b4c",
      "l1GasPrice": "0x2d41ffd3",
      "l1GasUsed": "0x640"
    },
    {
      "status": "0x1",
      "cumulativeGasUsed": "0x13b69c7",
      "logs": [
        {
          "address": "0x000000000022d473030f116ddee9f6b43ac78ba3",
          "topics": [
            "0xda9fa7c1b00402c17d0161b249b1ab8bbec047c5a52207b9c112deffd817036b",
            "0x000000000000000000000000a5c39b5b9d54ee7640b0776c85ccb47e83da1fee",
            "0x0000000000000000000000004200000000000000000000000000000000000006",
            "0x0000000000000000000000007c5f5a4bbd8fd63184577525326123b519429bdc"
          ],
          "data": "0x000000000000000000000000ffffffffffffffffffffffffffffffffffffffff0000000000000000000000000000000000000000000000000000ffffffffffff",
          "blockHash": "0x5c4b368608e30ac899136960ec327822a5bcb7962c7d8311c6f824ad092078fc",
          "blockNumber": "0x27a88e0",
          "blockTimestamp": "0x697f6ea3",
          "transactionHash": "0x693bfde3a645446edb697220bf2881ff4e14b1e6ee6404913fd14216d09bb217",
          "transactionIndex": "0x4b",
          "logIndex": "0x23a",
          "removed": false
        }
      ],
      "logsBloom": "0x00010000000000000000000000800000000400000000000000000000000000000000000000000000000000000000000000000000000000000020000000082000000000000000000000000000000000000000000000000000000000000000000000000000000000000000000000000000000010000000000000000000000000000020000000000000000000000000000000000000000000000000000000000000000000000000000000000000000000000000000000000000000000080000000200000000000004000000400000000000000000000000000040000000000000000000000000000000000000000000000000000000002000000000000000000400",
      "type": "0x2",
      "transactionHash": "0x693bfde3a645446edb697220bf2881ff4e14b1e6ee6404913fd14216d09bb217",
      "transactionIndex": "0x4b",
      "blockHash": "0x5c4b368608e30ac899136960ec327822a5bcb7962c7d8311c6f824ad092078fc",
      "blockNumber": "0x27a88e0",
      "gasUsed": "0x6c36",
      "effectiveGasPrice": "0x1b4bbc6",
      "blobGasUsed": "0x37ed",
      "from": "0xa5c39b5b9d54ee7640b0776c85ccb47e83da1fee",
      "to": "0x000000000022d473030f116ddee9f6b43ac78ba3",
      "contractAddress": null,
      "daFootprintGasScalar": "0x8b",
      "l1BaseFeeScalar": "0x8dd",
      "l1BlobBaseFee": "0x27640f5",
      "l1BlobBaseFeeScalar": "0x101c12",
      "l1Fee": "0x1b85a87f7",
      "l1GasPrice": "0x2d41ffd3",
      "l1GasUsed": "0x67c"
    },
    {
      "status": "0x1",
      "cumulativeGasUsed": "0x142075c",
      "logs": [
        {
          "address": "0x498581ff718922c3f8e6a244956af099b2652b2b",
          "topics": [
            "0xdd466e674ea557f56295e2d0218a125ea4b4f0f6f3307b95f85e6110838d6438",
            "0x25358a15e450fb2edd8ddf916ac50c834bc8ed45dc368580b0c4d491236b77a5",
            "0x0000000000000000000000001bc0c42215582d5a085795f4badbac3ff36d1bcb",
            "0x0000000000000000000000004200000000000000000000000000000000000006"
          ],
          "data": "0x0000000000000000000000000000000000000000000000000000000000800000000000000000000000000000000000000000000000000000000000000000003c000000000000000000000000abf204889fe7fb23ec60d1eb3eb5335f531a00800000000000000000000000000000000000000000205827052547b02750694f01ffffffffffffffffffffffffffffffffffffffffffffffffffffffffffff5e5f",
          "blockHash": "0xfeef76e1ea9fa90f77b18c2ced3fe07d4b1c63e51f1da1346524d660135a5147",
          "blockNumber": "0x27a88e0",
          "blockTimestamp": "0x697f6ea3",
          "transactionHash": "0x5c0f2507eb01c49a0b076036a4ce175060f937dee5e151cc85d98aa64284bff7",
          "transactionIndex": "0x4c",
          "logIndex": "0x23b",
          "removed": false
        },
        {
          "address": "0x7c5f5a4bbd8fd63184577525326123b519429bdc",
          "topics": [
            "0xddf252ad1be2c89b69c2b068fc378daa952ba7f163c4a11628f55a4df523b3ef",
            "0x0000000000000000000000000000000000000000000000000000000000000000",
            "0x000000000000000000000000a5c39b5b9d54ee7640b0776c85ccb47e83da1fee",
            "0x000000000000000000000000000000000000000000000000000000000011c340"
          ],
          "data": "0x",
          "blockHash": "0xfeef76e1ea9fa90f77b18c2ced3fe07d4b1c63e51f1da1346524d660135a5147",
          "blockNumber": "0x27a88e0",
          "blockTimestamp": "0x697f6ea3",
          "transactionHash": "0x5c0f2507eb01c49a0b076036a4ce175060f937dee5e151cc85d98aa64284bff7",
          "transactionIndex": "0x4c",
          "logIndex": "0x23c",
          "removed": false
        },
        {
          "address": "0x498581ff718922c3f8e6a244956af099b2652b2b",
          "topics": [
            "0xf208f4912782fd25c7f114ca3723a2d5dd6f3bcc3ac8db5af63baa85f711d5ec",
            "0x25358a15e450fb2edd8ddf916ac50c834bc8ed45dc368580b0c4d491236b77a5",
            "0x0000000000000000000000007c5f5a4bbd8fd63184577525326123b519429bdc"
          ],
          "data": "0xfffffffffffffffffffffffffffffffffffffffffffffffffffffffffffeaebc0000000000000000000000000000000000000000000000000000000000000e100000000000000000000000000000000000000000000000000146f7f255e9cbb2000000000000000000000000000000000000000000000000000000000011c340",
          "blockHash": "0xfeef76e1ea9fa90f77b18c2ced3fe07d4b1c63e51f1da1346524d660135a5147",
          "blockNumber": "0x27a88e0",
          "blockTimestamp": "0x697f6ea3",
          "transactionHash": "0x5c0f2507eb01c49a0b076036a4ce175060f937dee5e151cc85d98aa64284bff7",
          "transactionIndex": "0x4c",
          "logIndex": "0x23d",
          "removed": false
        },
        {
          "address": "0x1bc0c42215582d5a085795f4badbac3ff36d1bcb",
          "topics": [
            "0xddf252ad1be2c89b69c2b068fc378daa952ba7f163c4a11628f55a4df523b3ef",
            "0x000000000000000000000000a5c39b5b9d54ee7640b0776c85ccb47e83da1fee",
            "0x000000000000000000000000498581ff718922c3f8e6a244956af099b2652b2b"
          ],
          "data": "0x000000000000000000000000000000000000000000000000090aca7a45f1dd42",
          "blockHash": "0xfeef76e1ea9fa90f77b18c2ced3fe07d4b1c63e51f1da1346524d660135a5147",
          "blockNumber": "0x27a88e0",
          "blockTimestamp": "0x697f6ea3",
          "transactionHash": "0x5c0f2507eb01c49a0b076036a4ce175060f937dee5e151cc85d98aa64284bff7",
          "transactionIndex": "0x4c",
          "logIndex": "0x23e",
          "removed": false
        },
        {
          "address": "0x4200000000000000000000000000000000000006",
          "topics": [
            "0xddf252ad1be2c89b69c2b068fc378daa952ba7f163c4a11628f55a4df523b3ef",
            "0x000000000000000000000000a5c39b5b9d54ee7640b0776c85ccb47e83da1fee",
            "0x000000000000000000000000498581ff718922c3f8e6a244956af099b2652b2b"
          ],
          "data": "0x0000000000000000000000000000000000000000000000000024f2beb1aa0000",
          "blockHash": "0xfeef76e1ea9fa90f77b18c2ced3fe07d4b1c63e51f1da1346524d660135a5147",
          "blockNumber": "0x27a88e0",
          "blockTimestamp": "0x697f6ea3",
          "transactionHash": "0x5c0f2507eb01c49a0b076036a4ce175060f937dee5e151cc85d98aa64284bff7",
          "transactionIndex": "0x4c",
          "logIndex": "0x23f",
          "removed": false
        }
      ],
      "logsBloom": "0x00000000000000000000000000800000000400000000000000040000000000000020000000400020000000100000000000000000000000200020000000002000000000000000000000000008000000000000000000000000000000000000000000000000020000000000020000000800040010000000000000000010000000000000800001004008000000000000000000000001002000000000000400200002804004000000000008000000000000400000000000000000000000000000000200000006000005000000400000000000000800000010000200000000000020000000000000000000000000000000000004000404002000000000000000000000",
      "type": "0x2",
      "transactionHash": "0x5c0f2507eb01c49a0b076036a4ce175060f937dee5e151cc85d98aa64284bff7",
      "transactionIndex": "0x4c",
      "blockHash": "0xfeef76e1ea9fa90f77b18c2ced3fe07d4b1c63e51f1da1346524d660135a5147",
      "blockNumber": "0x27a88e0",
      "gasUsed": "0x69d95",
      "effectiveGasPrice": "0x1b4bbc6",
      "blobGasUsed": "0xb4cf",
      "from": "0xa5c39b5b9d54ee7640b0776c85ccb47e83da1fee",
      "to": "0x7c5f5a4bbd8fd63184577525326123b519429bdc",
      "contractAddress": null,
      "daFootprintGasScalar": "0x8b",
      "l1BaseFeeScalar": "0x8dd",
      "l1BlobBaseFee": "0x27640f5",
      "l1BlobBaseFeeScalar": "0x101c12",
      "l1Fee": "0x1a8399b4c",
      "l1GasPrice": "0x2d41ffd3",
      "l1GasUsed": "0x14d0"
    }
  ],
  "libraries": [],
  "pending": [],
  "returns": {},
  "timestamp": 1769959076923,
  "chain": 8453,
  "commit": "a3b28ea"
}